{
  "_format": "hh-sol-artifact-1",
  "contractName": "Fantik",
  "sourceName": "contracts/Fantik.sol",
  "abi": [
    {
      "inputs": [],
      "stateMutability": "nonpayable",
      "type": "constructor"
    },
    {
      "anonymous": false,
      "inputs": [
        {
          "indexed": true,
          "internalType": "address",
          "name": "owner",
          "type": "address"
        },
        {
          "indexed": true,
          "internalType": "address",
          "name": "spender",
          "type": "address"
        },
        {
          "indexed": false,
          "internalType": "uint256",
          "name": "value",
          "type": "uint256"
        }
      ],
      "name": "Approval",
      "type": "event"
    },
    {
      "anonymous": false,
      "inputs": [
        {
          "indexed": true,
          "internalType": "address",
          "name": "delegator",
          "type": "address"
        },
        {
          "indexed": true,
          "internalType": "address",
          "name": "fromDelegate",
          "type": "address"
        },
        {
          "indexed": true,
          "internalType": "address",
          "name": "toDelegate",
          "type": "address"
        }
      ],
      "name": "DelegateChanged",
      "type": "event"
    },
    {
      "anonymous": false,
      "inputs": [
        {
          "indexed": true,
          "internalType": "address",
          "name": "delegate",
          "type": "address"
        },
        {
          "indexed": false,
          "internalType": "uint256",
          "name": "previousBalance",
          "type": "uint256"
        },
        {
          "indexed": false,
          "internalType": "uint256",
          "name": "newBalance",
          "type": "uint256"
        }
      ],
      "name": "DelegateVotesChanged",
      "type": "event"
    },
    {
      "anonymous": false,
      "inputs": [
        {
          "indexed": true,
          "internalType": "address",
          "name": "from",
          "type": "address"
        },
        {
          "indexed": true,
          "internalType": "address",
          "name": "to",
          "type": "address"
        },
        {
          "indexed": false,
          "internalType": "uint256",
          "name": "value",
          "type": "uint256"
        }
      ],
      "name": "Transfer",
      "type": "event"
    },
    {
      "inputs": [],
      "name": "DOMAIN_SEPARATOR",
      "outputs": [
        {
          "internalType": "bytes32",
          "name": "",
          "type": "bytes32"
        }
      ],
      "stateMutability": "view",
      "type": "function"
    },
    {
      "inputs": [
        {
          "internalType": "address",
          "name": "owner",
          "type": "address"
        },
        {
          "internalType": "address",
          "name": "spender",
          "type": "address"
        }
      ],
      "name": "allowance",
      "outputs": [
        {
          "internalType": "uint256",
          "name": "",
          "type": "uint256"
        }
      ],
      "stateMutability": "view",
      "type": "function"
    },
    {
      "inputs": [
        {
          "internalType": "address",
          "name": "spender",
          "type": "address"
        },
        {
          "internalType": "uint256",
          "name": "amount",
          "type": "uint256"
        }
      ],
      "name": "approve",
      "outputs": [
        {
          "internalType": "bool",
          "name": "",
          "type": "bool"
        }
      ],
      "stateMutability": "nonpayable",
      "type": "function"
    },
    {
      "inputs": [
        {
          "internalType": "address",
          "name": "account",
          "type": "address"
        }
      ],
      "name": "balanceOf",
      "outputs": [
        {
          "internalType": "uint256",
          "name": "",
          "type": "uint256"
        }
      ],
      "stateMutability": "view",
      "type": "function"
    },
    {
      "inputs": [
        {
          "internalType": "address",
          "name": "account",
          "type": "address"
        },
        {
          "internalType": "uint32",
          "name": "pos",
          "type": "uint32"
        }
      ],
      "name": "checkpoints",
      "outputs": [
        {
          "components": [
            {
              "internalType": "uint32",
              "name": "fromBlock",
              "type": "uint32"
            },
            {
              "internalType": "uint224",
              "name": "votes",
              "type": "uint224"
            }
          ],
          "internalType": "struct ERC20Votes.Checkpoint",
          "name": "",
          "type": "tuple"
        }
      ],
      "stateMutability": "view",
      "type": "function"
    },
    {
      "inputs": [],
      "name": "decimals",
      "outputs": [
        {
          "internalType": "uint8",
          "name": "",
          "type": "uint8"
        }
      ],
      "stateMutability": "view",
      "type": "function"
    },
    {
      "inputs": [
        {
          "internalType": "address",
          "name": "spender",
          "type": "address"
        },
        {
          "internalType": "uint256",
          "name": "subtractedValue",
          "type": "uint256"
        }
      ],
      "name": "decreaseAllowance",
      "outputs": [
        {
          "internalType": "bool",
          "name": "",
          "type": "bool"
        }
      ],
      "stateMutability": "nonpayable",
      "type": "function"
    },
    {
      "inputs": [
        {
          "internalType": "address",
          "name": "delegatee",
          "type": "address"
        }
      ],
      "name": "delegate",
      "outputs": [],
      "stateMutability": "nonpayable",
      "type": "function"
    },
    {
      "inputs": [
        {
          "internalType": "address",
          "name": "delegatee",
          "type": "address"
        },
        {
          "internalType": "uint256",
          "name": "nonce",
          "type": "uint256"
        },
        {
          "internalType": "uint256",
          "name": "expiry",
          "type": "uint256"
        },
        {
          "internalType": "uint8",
          "name": "v",
          "type": "uint8"
        },
        {
          "internalType": "bytes32",
          "name": "r",
          "type": "bytes32"
        },
        {
          "internalType": "bytes32",
          "name": "s",
          "type": "bytes32"
        }
      ],
      "name": "delegateBySig",
      "outputs": [],
      "stateMutability": "nonpayable",
      "type": "function"
    },
    {
      "inputs": [
        {
          "internalType": "address",
          "name": "account",
          "type": "address"
        }
      ],
      "name": "delegates",
      "outputs": [
        {
          "internalType": "address",
          "name": "",
          "type": "address"
        }
      ],
      "stateMutability": "view",
      "type": "function"
    },
    {
      "inputs": [
        {
          "internalType": "uint256",
          "name": "blockNumber",
          "type": "uint256"
        }
      ],
      "name": "getPastTotalSupply",
      "outputs": [
        {
          "internalType": "uint256",
          "name": "",
          "type": "uint256"
        }
      ],
      "stateMutability": "view",
      "type": "function"
    },
    {
      "inputs": [
        {
          "internalType": "address",
          "name": "account",
          "type": "address"
        },
        {
          "internalType": "uint256",
          "name": "blockNumber",
          "type": "uint256"
        }
      ],
      "name": "getPastVotes",
      "outputs": [
        {
          "internalType": "uint256",
          "name": "",
          "type": "uint256"
        }
      ],
      "stateMutability": "view",
      "type": "function"
    },
    {
      "inputs": [
        {
          "internalType": "address",
          "name": "account",
          "type": "address"
        }
      ],
      "name": "getVotes",
      "outputs": [
        {
          "internalType": "uint256",
          "name": "",
          "type": "uint256"
        }
      ],
      "stateMutability": "view",
      "type": "function"
    },
    {
      "inputs": [
        {
          "internalType": "address",
          "name": "spender",
          "type": "address"
        },
        {
          "internalType": "uint256",
          "name": "addedValue",
          "type": "uint256"
        }
      ],
      "name": "increaseAllowance",
      "outputs": [
        {
          "internalType": "bool",
          "name": "",
          "type": "bool"
        }
      ],
      "stateMutability": "nonpayable",
      "type": "function"
    },
    {
      "inputs": [],
      "name": "name",
      "outputs": [
        {
          "internalType": "string",
          "name": "",
          "type": "string"
        }
      ],
      "stateMutability": "view",
      "type": "function"
    },
    {
      "inputs": [
        {
          "internalType": "address",
          "name": "owner",
          "type": "address"
        }
      ],
      "name": "nonces",
      "outputs": [
        {
          "internalType": "uint256",
          "name": "",
          "type": "uint256"
        }
      ],
      "stateMutability": "view",
      "type": "function"
    },
    {
      "inputs": [
        {
          "internalType": "address",
          "name": "account",
          "type": "address"
        }
      ],
      "name": "numCheckpoints",
      "outputs": [
        {
          "internalType": "uint32",
          "name": "",
          "type": "uint32"
        }
      ],
      "stateMutability": "view",
      "type": "function"
    },
    {
      "inputs": [
        {
          "internalType": "address",
          "name": "owner",
          "type": "address"
        },
        {
          "internalType": "address",
          "name": "spender",
          "type": "address"
        },
        {
          "internalType": "uint256",
          "name": "value",
          "type": "uint256"
        },
        {
          "internalType": "uint256",
          "name": "deadline",
          "type": "uint256"
        },
        {
          "internalType": "uint8",
          "name": "v",
          "type": "uint8"
        },
        {
          "internalType": "bytes32",
          "name": "r",
          "type": "bytes32"
        },
        {
          "internalType": "bytes32",
          "name": "s",
          "type": "bytes32"
        }
      ],
      "name": "permit",
      "outputs": [],
      "stateMutability": "nonpayable",
      "type": "function"
    },
    {
      "inputs": [],
      "name": "symbol",
      "outputs": [
        {
          "internalType": "string",
          "name": "",
          "type": "string"
        }
      ],
      "stateMutability": "view",
      "type": "function"
    },
    {
      "inputs": [],
      "name": "totalSupply",
      "outputs": [
        {
          "internalType": "uint256",
          "name": "",
          "type": "uint256"
        }
      ],
      "stateMutability": "view",
      "type": "function"
    },
    {
      "inputs": [
        {
          "internalType": "address",
          "name": "to",
          "type": "address"
        },
        {
          "internalType": "uint256",
          "name": "amount",
          "type": "uint256"
        }
      ],
      "name": "transfer",
      "outputs": [
        {
          "internalType": "bool",
          "name": "",
          "type": "bool"
        }
      ],
      "stateMutability": "nonpayable",
      "type": "function"
    },
    {
      "inputs": [
        {
          "internalType": "address",
          "name": "from",
          "type": "address"
        },
        {
          "internalType": "address",
          "name": "to",
          "type": "address"
        },
        {
          "internalType": "uint256",
          "name": "amount",
          "type": "uint256"
        }
      ],
      "name": "transferFrom",
      "outputs": [
        {
          "internalType": "bool",
          "name": "",
          "type": "bool"
        }
      ],
      "stateMutability": "nonpayable",
      "type": "function"
    }
  ],
  "bytecode": "0x6101406040523480156200001257600080fd5b506040518060400160405280600681526020017f46616e74696b0000000000000000000000000000000000000000000000000000815250806040518060400160405280600181526020017f31000000000000000000000000000000000000000000000000000000000000008152506040518060400160405280600681526020017f46616e74696b00000000000000000000000000000000000000000000000000008152506040518060400160405280600381526020017f464e5400000000000000000000000000000000000000000000000000000000008152508160039081620000fd919062000dec565b5080600490816200010f919062000dec565b50505060008280519060200120905060008280519060200120905060007f8b73c3c69bb8fe3d512ecc4cf759cc79239f7b179b0ffacaa9a75d522b39400f90508260e081815250508161010081815250504660a081815250506200017b818484620001e160201b60201c565b608081815250503073ffffffffffffffffffffffffffffffffffffffff1660c08173ffffffffffffffffffffffffffffffffffffffff1681525050806101208181525050505050505050620001db336305f5e1006200021d60201b60201c565b620012db565b60008383834630604051602001620001fe95949392919062000f44565b6040516020818303038152906040528051906020012090509392505050565b620002348282620002db60201b62000e7b1760201c565b620002446200044860201b60201c565b7bffffffffffffffffffffffffffffffffffffffffffffffffffffffff16620002726200046c60201b60201c565b1115620002b6576040517f08c379a0000000000000000000000000000000000000000000000000000000008152600401620002ad9062001028565b60405180910390fd5b620002d560096200047660201b62000fd117836200048e60201b60201c565b50505050565b600073ffffffffffffffffffffffffffffffffffffffff168273ffffffffffffffffffffffffffffffffffffffff16036200034d576040517f08c379a000000000000000000000000000000000000000000000000000000000815260040162000344906200109a565b60405180910390fd5b62000361600083836200079b60201b60201c565b8060026000828254620003759190620010eb565b92505081905550806000808473ffffffffffffffffffffffffffffffffffffffff1673ffffffffffffffffffffffffffffffffffffffff168152602001908152602001600020600082825401925050819055508173ffffffffffffffffffffffffffffffffffffffff16600073ffffffffffffffffffffffffffffffffffffffff167fddf252ad1be2c89b69c2b068fc378daa952ba7f163c4a11628f55a4df523b3ef8360405162000428919062001126565b60405180910390a36200044460008383620007a060201b60201c565b5050565b60007bffffffffffffffffffffffffffffffffffffffffffffffffffffffff905090565b6000600254905090565b60008183620004869190620010eb565b905092915050565b60008060008580549050905060008082146200056957620004c487600184620004b8919062001143565b620007f060201b60201c565b6040518060400160405290816000820160009054906101000a900463ffffffff1663ffffffff1663ffffffff1681526020016000820160049054906101000a90047bffffffffffffffffffffffffffffffffffffffffffffffffffffffff167bffffffffffffffffffffffffffffffffffffffffffffffffffffffff167bffffffffffffffffffffffffffffffffffffffffffffffffffffffff1681525050620005a5565b6040518060400160405280600063ffffffff16815260200160007bffffffffffffffffffffffffffffffffffffffffffffffffffffffff168152505b905080602001517bffffffffffffffffffffffffffffffffffffffffffffffffffffffff169350620005d884868860201c565b9250600082118015620005f4575043816000015163ffffffff16145b15620006875762000610836200080560201b62000fe71760201c565b620006308860018562000624919062001143565b620007f060201b60201c565b60000160046101000a8154817bffffffffffffffffffffffffffffffffffffffffffffffffffffffff02191690837bffffffffffffffffffffffffffffffffffffffffffffffffffffffff16021790555062000791565b866040518060400160405280620006a9436200087360201b620010521760201c565b63ffffffff168152602001620006ca866200080560201b62000fe71760201c565b7bffffffffffffffffffffffffffffffffffffffffffffffffffffffff168152509080600181540180825580915050600190039060005260206000200160009091909190915060008201518160000160006101000a81548163ffffffff021916908363ffffffff16021790555060208201518160000160046101000a8154817bffffffffffffffffffffffffffffffffffffffffffffffffffffffff02191690837bffffffffffffffffffffffffffffffffffffffffffffffffffffffff16021790555050505b5050935093915050565b505050565b620007b8838383620008c960201b620010a51760201c565b620007eb620007cd84620008ce60201b60201c565b620007de84620008ce60201b60201c565b836200093760201b60201c565b505050565b60008260005281602060002001905092915050565b60007bffffffffffffffffffffffffffffffffffffffffffffffffffffffff80168211156200086b576040517f08c379a00000000000000000000000000000000000000000000000000000000081526004016200086290620011f4565b60405180910390fd5b819050919050565b600063ffffffff8016821115620008c1576040517f08c379a0000000000000000000000000000000000000000000000000000000008152600401620008b8906200128c565b60405180910390fd5b819050919050565b505050565b6000600760008373ffffffffffffffffffffffffffffffffffffffff1673ffffffffffffffffffffffffffffffffffffffff16815260200190815260200160002060009054906101000a900473ffffffffffffffffffffffffffffffffffffffff169050919050565b8173ffffffffffffffffffffffffffffffffffffffff168373ffffffffffffffffffffffffffffffffffffffff1614158015620009745750600081115b1562000b5557600073ffffffffffffffffffffffffffffffffffffffff168373ffffffffffffffffffffffffffffffffffffffff161462000a675760008062000a0e600860008773ffffffffffffffffffffffffffffffffffffffff1673ffffffffffffffffffffffffffffffffffffffff16815260200190815260200160002062000b5a60201b620010aa17856200048e60201b60201c565b915091508473ffffffffffffffffffffffffffffffffffffffff167fdec2bacdd2f05b59de34da9b523dff8be42e5e38e818c82fdb0bae774387a724838360405162000a5c929190620012ae565b60405180910390a250505b600073ffffffffffffffffffffffffffffffffffffffff168273ffffffffffffffffffffffffffffffffffffffff161462000b545760008062000afb600860008673ffffffffffffffffffffffffffffffffffffffff1673ffffffffffffffffffffffffffffffffffffffff1681526020019081526020016000206200047660201b62000fd117856200048e60201b60201c565b915091508373ffffffffffffffffffffffffffffffffffffffff167fdec2bacdd2f05b59de34da9b523dff8be42e5e38e818c82fdb0bae774387a724838360405162000b49929190620012ae565b60405180910390a250505b5b505050565b6000818362000b6a919062001143565b905092915050565b600081519050919050565b7f4e487b7100000000000000000000000000000000000000000000000000000000600052604160045260246000fd5b7f4e487b7100000000000000000000000000000000000000000000000000000000600052602260045260246000fd5b6000600282049050600182168062000bf457607f821691505b60208210810362000c0a5762000c0962000bac565b5b50919050565b60008190508160005260206000209050919050565b60006020601f8301049050919050565b600082821b905092915050565b60006008830262000c747fffffffffffffffffffffffffffffffffffffffffffffffffffffffffffffffff8262000c35565b62000c80868362000c35565b95508019841693508086168417925050509392505050565b6000819050919050565b6000819050919050565b600062000ccd62000cc762000cc18462000c98565b62000ca2565b62000c98565b9050919050565b6000819050919050565b62000ce98362000cac565b62000d0162000cf88262000cd4565b84845462000c42565b825550505050565b600090565b62000d1862000d09565b62000d2581848462000cde565b505050565b5b8181101562000d4d5762000d4160008262000d0e565b60018101905062000d2b565b5050565b601f82111562000d9c5762000d668162000c10565b62000d718462000c25565b8101602085101562000d81578190505b62000d9962000d908562000c25565b83018262000d2a565b50505b505050565b600082821c905092915050565b600062000dc16000198460080262000da1565b1980831691505092915050565b600062000ddc838362000dae565b9150826002028217905092915050565b62000df78262000b72565b67ffffffffffffffff81111562000e135762000e1262000b7d565b5b62000e1f825462000bdb565b62000e2c82828562000d51565b600060209050601f83116001811462000e64576000841562000e4f578287015190505b62000e5b858262000dce565b86555062000ecb565b601f19841662000e748662000c10565b60005b8281101562000e9e5784890151825560018201915060208501945060208101905062000e77565b8683101562000ebe578489015162000eba601f89168262000dae565b8355505b6001600288020188555050505b505050505050565b6000819050919050565b62000ee88162000ed3565b82525050565b62000ef98162000c98565b82525050565b600073ffffffffffffffffffffffffffffffffffffffff82169050919050565b600062000f2c8262000eff565b9050919050565b62000f3e8162000f1f565b82525050565b600060a08201905062000f5b600083018862000edd565b62000f6a602083018762000edd565b62000f79604083018662000edd565b62000f88606083018562000eee565b62000f97608083018462000f33565b9695505050505050565b600082825260208201905092915050565b7f4552433230566f7465733a20746f74616c20737570706c79207269736b73206f60008201527f766572666c6f77696e6720766f74657300000000000000000000000000000000602082015250565b60006200101060308362000fa1565b91506200101d8262000fb2565b604082019050919050565b60006020820190508181036000830152620010438162001001565b9050919050565b7f45524332303a206d696e7420746f20746865207a65726f206164647265737300600082015250565b600062001082601f8362000fa1565b91506200108f826200104a565b602082019050919050565b60006020820190508181036000830152620010b58162001073565b9050919050565b7f4e487b7100000000000000000000000000000000000000000000000000000000600052601160045260246000fd5b6000620010f88262000c98565b9150620011058362000c98565b925082820190508082111562001120576200111f620010bc565b5b92915050565b60006020820190506200113d600083018462000eee565b92915050565b6000620011508262000c98565b91506200115d8362000c98565b9250828203905081811115620011785762001177620010bc565b5b92915050565b7f53616665436173743a2076616c756520646f65736e27742066697420696e203260008201527f3234206269747300000000000000000000000000000000000000000000000000602082015250565b6000620011dc60278362000fa1565b9150620011e9826200117e565b604082019050919050565b600060208201905081810360008301526200120f81620011cd565b9050919050565b7f53616665436173743a2076616c756520646f65736e27742066697420696e203360008201527f3220626974730000000000000000000000000000000000000000000000000000602082015250565b60006200127460268362000fa1565b9150620012818262001216565b604082019050919050565b60006020820190508181036000830152620012a78162001265565b9050919050565b6000604082019050620012c5600083018562000eee565b620012d4602083018462000eee565b9392505050565b60805160a05160c05160e05161010051610120516137116200132b6000396000611641015260006116830152600061166201526000611597015260006115ed0152600061161601526137116000f3fe608060405234801561001057600080fd5b50600436106101425760003560e01c806370a08231116100b8578063a457c2d71161007c578063a457c2d7146103d9578063a9059cbb14610409578063c3cda52014610439578063d505accf14610455578063dd62ed3e14610471578063f1127ed8146104a157610142565b806370a08231146102fb5780637ecebe001461032b5780638e539e8c1461035b57806395d89b411461038b5780639ab24eb0146103a957610142565b80633644e5151161010a5780633644e51514610201578063395093511461021f5780633a46b1a81461024f578063587cde1e1461027f5780635c19a95c146102af5780636fcfff45146102cb57610142565b806306fdde0314610147578063095ea7b31461016557806318160ddd1461019557806323b872dd146101b3578063313ce567146101e3575b600080fd5b61014f6104d1565b60405161015c9190612488565b60405180910390f35b61017f600480360381019061017a9190612543565b610563565b60405161018c919061259e565b60405180910390f35b61019d610586565b6040516101aa91906125c8565b60405180910390f35b6101cd60048036038101906101c891906125e3565b610590565b6040516101da919061259e565b60405180910390f35b6101eb6105bf565b6040516101f89190612652565b60405180910390f35b6102096105c8565b6040516102169190612686565b60405180910390f35b61023960048036038101906102349190612543565b6105d7565b604051610246919061259e565b60405180910390f35b61026960048036038101906102649190612543565b61060e565b60405161027691906125c8565b60405180910390f35b610299600480360381019061029491906126a1565b6106a2565b6040516102a691906126dd565b60405180910390f35b6102c960048036038101906102c491906126a1565b61070b565b005b6102e560048036038101906102e091906126a1565b61071f565b6040516102f29190612717565b60405180910390f35b610315600480360381019061031091906126a1565b610773565b60405161032291906125c8565b60405180910390f35b610345600480360381019061034091906126a1565b6107bb565b60405161035291906125c8565b60405180910390f35b61037560048036038101906103709190612732565b61080b565b60405161038291906125c8565b60405180910390f35b610393610861565b6040516103a09190612488565b60405180910390f35b6103c360048036038101906103be91906126a1565b6108f3565b6040516103d091906125c8565b60405180910390f35b6103f360048036038101906103ee9190612543565b610a04565b604051610400919061259e565b60405180910390f35b610423600480360381019061041e9190612543565b610a7b565b604051610430919061259e565b60405180910390f35b610453600480360381019061044e91906127b7565b610a9e565b005b61046f600480360381019061046a9190612844565b610ba2565b005b61048b600480360381019061048691906128e6565b610ce4565b60405161049891906125c8565b60405180910390f35b6104bb60048036038101906104b69190612952565b610d6b565b6040516104c89190612a07565b60405180910390f35b6060600380546104e090612a51565b80601f016020809104026020016040519081016040528092919081815260200182805461050c90612a51565b80156105595780601f1061052e57610100808354040283529160200191610559565b820191906000526020600020905b81548152906001019060200180831161053c57829003601f168201915b5050505050905090565b60008061056e6110c0565b905061057b8185856110c8565b600191505092915050565b6000600254905090565b60008061059b6110c0565b90506105a8858285611291565b6105b385858561131d565b60019150509392505050565b60006006905090565b60006105d2611593565b905090565b6000806105e26110c0565b90506106038185856105f48589610ce4565b6105fe9190612ab1565b6110c8565b600191505092915050565b6000438210610652576040517f08c379a000000000000000000000000000000000000000000000000000000000815260040161064990612b31565b60405180910390fd5b61069a600860008573ffffffffffffffffffffffffffffffffffffffff1673ffffffffffffffffffffffffffffffffffffffff168152602001908152602001600020836116ad565b905092915050565b6000600760008373ffffffffffffffffffffffffffffffffffffffff1673ffffffffffffffffffffffffffffffffffffffff16815260200190815260200160002060009054906101000a900473ffffffffffffffffffffffffffffffffffffffff169050919050565b61071c6107166110c0565b826117fe565b50565b600061076c600860008473ffffffffffffffffffffffffffffffffffffffff1673ffffffffffffffffffffffffffffffffffffffff16815260200190815260200160002080549050611052565b9050919050565b60008060008373ffffffffffffffffffffffffffffffffffffffff1673ffffffffffffffffffffffffffffffffffffffff168152602001908152602001600020549050919050565b6000610804600560008473ffffffffffffffffffffffffffffffffffffffff1673ffffffffffffffffffffffffffffffffffffffff168152602001908152602001600020611918565b9050919050565b600043821061084f576040517f08c379a000000000000000000000000000000000000000000000000000000000815260040161084690612b31565b60405180910390fd5b61085a6009836116ad565b9050919050565b60606004805461087090612a51565b80601f016020809104026020016040519081016040528092919081815260200182805461089c90612a51565b80156108e95780601f106108be576101008083540402835291602001916108e9565b820191906000526020600020905b8154815290600101906020018083116108cc57829003601f168201915b5050505050905090565b600080600860008473ffffffffffffffffffffffffffffffffffffffff1673ffffffffffffffffffffffffffffffffffffffff168152602001908152602001600020805490509050600081146109db57600860008473ffffffffffffffffffffffffffffffffffffffff1673ffffffffffffffffffffffffffffffffffffffff16815260200190815260200160002060018261098f9190612b51565b815481106109a05761099f612b85565b5b9060005260206000200160000160049054906101000a90047bffffffffffffffffffffffffffffffffffffffffffffffffffffffff166109de565b60005b7bffffffffffffffffffffffffffffffffffffffffffffffffffffffff16915050919050565b600080610a0f6110c0565b90506000610a1d8286610ce4565b905083811015610a62576040517f08c379a0000000000000000000000000000000000000000000000000000000008152600401610a5990612c26565b60405180910390fd5b610a6f82868684036110c8565b60019250505092915050565b600080610a866110c0565b9050610a9381858561131d565b600191505092915050565b83421115610ae1576040517f08c379a0000000000000000000000000000000000000000000000000000000008152600401610ad890612c92565b60405180910390fd5b6000610b43610b3b7fe48329057bfd03d55e49b547132e39cffd9c1820ad7b9d4c5307691425d15adf898989604051602001610b209493929190612cb2565b60405160208183030381529060405280519060200120611926565b858585611940565b9050610b4e8161196b565b8614610b8f576040517f08c379a0000000000000000000000000000000000000000000000000000000008152600401610b8690612d43565b60405180910390fd5b610b9981886117fe565b50505050505050565b83421115610be5576040517f08c379a0000000000000000000000000000000000000000000000000000000008152600401610bdc90612daf565b60405180910390fd5b60007f6e71edae12b1b97f4d1f60370fef10105fa2faae0126114a169c64845d6126c9888888610c148c61196b565b89604051602001610c2a96959493929190612dcf565b6040516020818303038152906040528051906020012090506000610c4d82611926565b90506000610c5d82878787611940565b90508973ffffffffffffffffffffffffffffffffffffffff168173ffffffffffffffffffffffffffffffffffffffff1614610ccd576040517f08c379a0000000000000000000000000000000000000000000000000000000008152600401610cc490612e7c565b60405180910390fd5b610cd88a8a8a6110c8565b50505050505050505050565b6000600160008473ffffffffffffffffffffffffffffffffffffffff1673ffffffffffffffffffffffffffffffffffffffff16815260200190815260200160002060008373ffffffffffffffffffffffffffffffffffffffff1673ffffffffffffffffffffffffffffffffffffffff16815260200190815260200160002054905092915050565b610d736123ba565b600860008473ffffffffffffffffffffffffffffffffffffffff1673ffffffffffffffffffffffffffffffffffffffff1681526020019081526020016000208263ffffffff1681548110610dca57610dc9612b85565b5b906000526020600020016040518060400160405290816000820160009054906101000a900463ffffffff1663ffffffff1663ffffffff1681526020016000820160049054906101000a90047bffffffffffffffffffffffffffffffffffffffffffffffffffffffff167bffffffffffffffffffffffffffffffffffffffffffffffffffffffff167bffffffffffffffffffffffffffffffffffffffffffffffffffffffff1681525050905092915050565b600073ffffffffffffffffffffffffffffffffffffffff168273ffffffffffffffffffffffffffffffffffffffff1603610eea576040517f08c379a0000000000000000000000000000000000000000000000000000000008152600401610ee190612ee8565b60405180910390fd5b610ef6600083836119c9565b8060026000828254610f089190612ab1565b92505081905550806000808473ffffffffffffffffffffffffffffffffffffffff1673ffffffffffffffffffffffffffffffffffffffff168152602001908152602001600020600082825401925050819055508173ffffffffffffffffffffffffffffffffffffffff16600073ffffffffffffffffffffffffffffffffffffffff167fddf252ad1be2c89b69c2b068fc378daa952ba7f163c4a11628f55a4df523b3ef83604051610fb991906125c8565b60405180910390a3610fcd600083836119ce565b5050565b60008183610fdf9190612ab1565b905092915050565b60007bffffffffffffffffffffffffffffffffffffffffffffffffffffffff801682111561104a576040517f08c379a000000000000000000000000000000000000000000000000000000000815260040161104190612f7a565b60405180910390fd5b819050919050565b600063ffffffff801682111561109d576040517f08c379a00000000000000000000000000000000000000000000000000000000081526004016110949061300c565b60405180910390fd5b819050919050565b505050565b600081836110b89190612b51565b905092915050565b600033905090565b600073ffffffffffffffffffffffffffffffffffffffff168373ffffffffffffffffffffffffffffffffffffffff1603611137576040517f08c379a000000000000000000000000000000000000000000000000000000000815260040161112e9061309e565b60405180910390fd5b600073ffffffffffffffffffffffffffffffffffffffff168273ffffffffffffffffffffffffffffffffffffffff16036111a6576040517f08c379a000000000000000000000000000000000000000000000000000000000815260040161119d90613130565b60405180910390fd5b80600160008573ffffffffffffffffffffffffffffffffffffffff1673ffffffffffffffffffffffffffffffffffffffff16815260200190815260200160002060008473ffffffffffffffffffffffffffffffffffffffff1673ffffffffffffffffffffffffffffffffffffffff168152602001908152602001600020819055508173ffffffffffffffffffffffffffffffffffffffff168373ffffffffffffffffffffffffffffffffffffffff167f8c5be1e5ebec7d5bd14f71427d1e84f3dd0314c0f7b2291e5b200ac8c7c3b9258360405161128491906125c8565b60405180910390a3505050565b600061129d8484610ce4565b90507fffffffffffffffffffffffffffffffffffffffffffffffffffffffffffffffff81146113175781811015611309576040517f08c379a00000000000000000000000000000000000000000000000000000000081526004016113009061319c565b60405180910390fd5b61131684848484036110c8565b5b50505050565b600073ffffffffffffffffffffffffffffffffffffffff168373ffffffffffffffffffffffffffffffffffffffff160361138c576040517f08c379a00000000000000000000000000000000000000000000000000000000081526004016113839061322e565b60405180910390fd5b600073ffffffffffffffffffffffffffffffffffffffff168273ffffffffffffffffffffffffffffffffffffffff16036113fb576040517f08c379a00000000000000000000000000000000000000000000000000000000081526004016113f2906132c0565b60405180910390fd5b6114068383836119c9565b60008060008573ffffffffffffffffffffffffffffffffffffffff1673ffffffffffffffffffffffffffffffffffffffff1681526020019081526020016000205490508181101561148c576040517f08c379a000000000000000000000000000000000000000000000000000000000815260040161148390613352565b60405180910390fd5b8181036000808673ffffffffffffffffffffffffffffffffffffffff1673ffffffffffffffffffffffffffffffffffffffff16815260200190815260200160002081905550816000808573ffffffffffffffffffffffffffffffffffffffff1673ffffffffffffffffffffffffffffffffffffffff168152602001908152602001600020600082825401925050819055508273ffffffffffffffffffffffffffffffffffffffff168473ffffffffffffffffffffffffffffffffffffffff167fddf252ad1be2c89b69c2b068fc378daa952ba7f163c4a11628f55a4df523b3ef8460405161157a91906125c8565b60405180910390a361158d8484846119ce565b50505050565b60007f000000000000000000000000000000000000000000000000000000000000000073ffffffffffffffffffffffffffffffffffffffff163073ffffffffffffffffffffffffffffffffffffffff1614801561160f57507f000000000000000000000000000000000000000000000000000000000000000046145b1561163c577f000000000000000000000000000000000000000000000000000000000000000090506116aa565b6116a77f00000000000000000000000000000000000000000000000000000000000000007f00000000000000000000000000000000000000000000000000000000000000007f00000000000000000000000000000000000000000000000000000000000000006119f9565b90505b90565b6000808380549050905060008082905060058311156117235760006116d184611a33565b846116dc9190612b51565b9050856116e98883611b2c565b60000160009054906101000a900463ffffffff1663ffffffff16111561171157809150611721565b60018161171e9190612ab1565b92505b505b5b808210156117835760006117388383611b41565b9050856117458883611b2c565b60000160009054906101000a900463ffffffff1663ffffffff16111561176d5780915061177d565b60018161177a9190612ab1565b92505b50611724565b600081146117d2576117a18660018361179c9190612b51565b611b2c565b60000160049054906101000a90047bffffffffffffffffffffffffffffffffffffffffffffffffffffffff166117d5565b60005b7bffffffffffffffffffffffffffffffffffffffffffffffffffffffff16935050505092915050565b6000611809836106a2565b9050600061181684610773565b905082600760008673ffffffffffffffffffffffffffffffffffffffff1673ffffffffffffffffffffffffffffffffffffffff16815260200190815260200160002060006101000a81548173ffffffffffffffffffffffffffffffffffffffff021916908373ffffffffffffffffffffffffffffffffffffffff1602179055508273ffffffffffffffffffffffffffffffffffffffff168273ffffffffffffffffffffffffffffffffffffffff168573ffffffffffffffffffffffffffffffffffffffff167f3134e8a2e6d97e929a7e54011ea5485d7d196dd5f0ba4d4ef95803e8e3fc257f60405160405180910390a4611912828483611b67565b50505050565b600081600001549050919050565b6000611939611933611593565b83611d60565b9050919050565b600080600061195187878787611d93565b9150915061195e81611e75565b8192505050949350505050565b600080600560008473ffffffffffffffffffffffffffffffffffffffff1673ffffffffffffffffffffffffffffffffffffffff16815260200190815260200160002090506119b881611918565b91506119c381611fdb565b50919050565b505050565b6119d98383836110a5565b6119f46119e5846106a2565b6119ee846106a2565b83611b67565b505050565b60008383834630604051602001611a14959493929190613372565b6040516020818303038152906040528051906020012090509392505050565b6000808203611a455760009050611b27565b60006001611a5284611ff1565b901c6001901b90506001818481611a6c57611a6b6133c5565b5b048201901c90506001818481611a8557611a846133c5565b5b048201901c90506001818481611a9e57611a9d6133c5565b5b048201901c90506001818481611ab757611ab66133c5565b5b048201901c90506001818481611ad057611acf6133c5565b5b048201901c90506001818481611ae957611ae86133c5565b5b048201901c90506001818481611b0257611b016133c5565b5b048201901c9050611b2381828581611b1d57611b1c6133c5565b5b046120d2565b9150505b919050565b60008260005281602060002001905092915050565b60006002828418611b5291906133f4565b828416611b5f9190612ab1565b905092915050565b8173ffffffffffffffffffffffffffffffffffffffff168373ffffffffffffffffffffffffffffffffffffffff1614158015611ba35750600081115b15611d5b57600073ffffffffffffffffffffffffffffffffffffffff168373ffffffffffffffffffffffffffffffffffffffff1614611c8157600080611c2a600860008773ffffffffffffffffffffffffffffffffffffffff1673ffffffffffffffffffffffffffffffffffffffff1681526020019081526020016000206110aa856120eb565b915091508473ffffffffffffffffffffffffffffffffffffffff167fdec2bacdd2f05b59de34da9b523dff8be42e5e38e818c82fdb0bae774387a7248383604051611c76929190613425565b60405180910390a250505b600073ffffffffffffffffffffffffffffffffffffffff168273ffffffffffffffffffffffffffffffffffffffff1614611d5a57600080611d03600860008673ffffffffffffffffffffffffffffffffffffffff1673ffffffffffffffffffffffffffffffffffffffff168152602001908152602001600020610fd1856120eb565b915091508373ffffffffffffffffffffffffffffffffffffffff167fdec2bacdd2f05b59de34da9b523dff8be42e5e38e818c82fdb0bae774387a7248383604051611d4f929190613425565b60405180910390a250505b5b505050565b60008282604051602001611d759291906134c6565b60405160208183030381529060405280519060200120905092915050565b6000807f7fffffffffffffffffffffffffffffff5d576e7357a4501ddfe92f46681b20a08360001c1115611dce576000600391509150611e6c565b600060018787878760405160008152602001604052604051611df394939291906134fd565b6020604051602081039080840390855afa158015611e15573d6000803e3d6000fd5b505050602060405103519050600073ffffffffffffffffffffffffffffffffffffffff168173ffffffffffffffffffffffffffffffffffffffff1603611e6357600060019250925050611e6c565b80600092509250505b94509492505050565b60006004811115611e8957611e88613542565b5b816004811115611e9c57611e9b613542565b5b0315611fd85760016004811115611eb657611eb5613542565b5b816004811115611ec957611ec8613542565b5b03611f09576040517f08c379a0000000000000000000000000000000000000000000000000000000008152600401611f00906135bd565b60405180910390fd5b60026004811115611f1d57611f1c613542565b5b816004811115611f3057611f2f613542565b5b03611f70576040517f08c379a0000000000000000000000000000000000000000000000000000000008152600401611f6790613629565b60405180910390fd5b60036004811115611f8457611f83613542565b5b816004811115611f9757611f96613542565b5b03611fd7576040517f08c379a0000000000000000000000000000000000000000000000000000000008152600401611fce906136bb565b60405180910390fd5b5b50565b6001816000016000828254019250508190555050565b600080600090506000608084901c111561201357608083901c92506080810190505b6000604084901c111561202e57604083901c92506040810190505b6000602084901c111561204957602083901c92506020810190505b6000601084901c111561206457601083901c92506010810190505b6000600884901c111561207f57600883901c92506008810190505b6000600484901c111561209a57600483901c92506004810190505b6000600284901c11156120b557600283901c92506002810190505b6000600184901c11156120c9576001810190505b80915050919050565b60008183106120e157816120e3565b825b905092915050565b60008060008580549050905060008082146121ba57612116876001846121119190612b51565b611b2c565b6040518060400160405290816000820160009054906101000a900463ffffffff1663ffffffff1663ffffffff1681526020016000820160049054906101000a90047bffffffffffffffffffffffffffffffffffffffffffffffffffffffff167bffffffffffffffffffffffffffffffffffffffffffffffffffffffff167bffffffffffffffffffffffffffffffffffffffffffffffffffffffff16815250506121f6565b6040518060400160405280600063ffffffff16815260200160007bffffffffffffffffffffffffffffffffffffffffffffffffffffffff168152505b905080602001517bffffffffffffffffffffffffffffffffffffffffffffffffffffffff16935061222b84868863ffffffff16565b9250600082118015612246575043816000015163ffffffff16145b156122c05761225483610fe7565b61226a886001856122659190612b51565b611b2c565b60000160046101000a8154817bffffffffffffffffffffffffffffffffffffffffffffffffffffffff02191690837bffffffffffffffffffffffffffffffffffffffffffffffffffffffff1602179055506123b0565b8660405180604001604052806122d543611052565b63ffffffff1681526020016122e986610fe7565b7bffffffffffffffffffffffffffffffffffffffffffffffffffffffff168152509080600181540180825580915050600190039060005260206000200160009091909190915060008201518160000160006101000a81548163ffffffff021916908363ffffffff16021790555060208201518160000160046101000a8154817bffffffffffffffffffffffffffffffffffffffffffffffffffffffff02191690837bffffffffffffffffffffffffffffffffffffffffffffffffffffffff16021790555050505b5050935093915050565b6040518060400160405280600063ffffffff16815260200160007bffffffffffffffffffffffffffffffffffffffffffffffffffffffff1681525090565b600081519050919050565b600082825260208201905092915050565b60005b83811015612432578082015181840152602081019050612417565b60008484015250505050565b6000601f19601f8301169050919050565b600061245a826123f8565b6124648185612403565b9350612474818560208601612414565b61247d8161243e565b840191505092915050565b600060208201905081810360008301526124a2818461244f565b905092915050565b600080fd5b600073ffffffffffffffffffffffffffffffffffffffff82169050919050565b60006124da826124af565b9050919050565b6124ea816124cf565b81146124f557600080fd5b50565b600081359050612507816124e1565b92915050565b6000819050919050565b6125208161250d565b811461252b57600080fd5b50565b60008135905061253d81612517565b92915050565b6000806040838503121561255a576125596124aa565b5b6000612568858286016124f8565b92505060206125798582860161252e565b9150509250929050565b60008115159050919050565b61259881612583565b82525050565b60006020820190506125b3600083018461258f565b92915050565b6125c28161250d565b82525050565b60006020820190506125dd60008301846125b9565b92915050565b6000806000606084860312156125fc576125fb6124aa565b5b600061260a868287016124f8565b935050602061261b868287016124f8565b925050604061262c8682870161252e565b9150509250925092565b600060ff82169050919050565b61264c81612636565b82525050565b60006020820190506126676000830184612643565b92915050565b6000819050919050565b6126808161266d565b82525050565b600060208201905061269b6000830184612677565b92915050565b6000602082840312156126b7576126b66124aa565b5b60006126c5848285016124f8565b91505092915050565b6126d7816124cf565b82525050565b60006020820190506126f260008301846126ce565b92915050565b600063ffffffff82169050919050565b612711816126f8565b82525050565b600060208201905061272c6000830184612708565b92915050565b600060208284031215612748576127476124aa565b5b60006127568482850161252e565b91505092915050565b61276881612636565b811461277357600080fd5b50565b6000813590506127858161275f565b92915050565b6127948161266d565b811461279f57600080fd5b50565b6000813590506127b18161278b565b92915050565b60008060008060008060c087890312156127d4576127d36124aa565b5b60006127e289828a016124f8565b96505060206127f389828a0161252e565b955050604061280489828a0161252e565b945050606061281589828a01612776565b935050608061282689828a016127a2565b92505060a061283789828a016127a2565b9150509295509295509295565b600080600080600080600060e0888a031215612863576128626124aa565b5b60006128718a828b016124f8565b97505060206128828a828b016124f8565b96505060406128938a828b0161252e565b95505060606128a48a828b0161252e565b94505060806128b58a828b01612776565b93505060a06128c68a828b016127a2565b92505060c06128d78a828b016127a2565b91505092959891949750929550565b600080604083850312156128fd576128fc6124aa565b5b600061290b858286016124f8565b925050602061291c858286016124f8565b9150509250929050565b61292f816126f8565b811461293a57600080fd5b50565b60008135905061294c81612926565b92915050565b60008060408385031215612969576129686124aa565b5b6000612977858286016124f8565b92505060206129888582860161293d565b9150509250929050565b61299b816126f8565b82525050565b60007bffffffffffffffffffffffffffffffffffffffffffffffffffffffff82169050919050565b6129d2816129a1565b82525050565b6040820160008201516129ee6000850182612992565b506020820151612a0160208501826129c9565b50505050565b6000604082019050612a1c60008301846129d8565b92915050565b7f4e487b7100000000000000000000000000000000000000000000000000000000600052602260045260246000fd5b60006002820490506001821680612a6957607f821691505b602082108103612a7c57612a7b612a22565b5b50919050565b7f4e487b7100000000000000000000000000000000000000000000000000000000600052601160045260246000fd5b6000612abc8261250d565b9150612ac78361250d565b9250828201905080821115612adf57612ade612a82565b5b92915050565b7f4552433230566f7465733a20626c6f636b206e6f7420796574206d696e656400600082015250565b6000612b1b601f83612403565b9150612b2682612ae5565b602082019050919050565b60006020820190508181036000830152612b4a81612b0e565b9050919050565b6000612b5c8261250d565b9150612b678361250d565b9250828203905081811115612b7f57612b7e612a82565b5b92915050565b7f4e487b7100000000000000000000000000000000000000000000000000000000600052603260045260246000fd5b7f45524332303a2064656372656173656420616c6c6f77616e63652062656c6f7760008201527f207a65726f000000000000000000000000000000000000000000000000000000602082015250565b6000612c10602583612403565b9150612c1b82612bb4565b604082019050919050565b60006020820190508181036000830152612c3f81612c03565b9050919050565b7f4552433230566f7465733a207369676e61747572652065787069726564000000600082015250565b6000612c7c601d83612403565b9150612c8782612c46565b602082019050919050565b60006020820190508181036000830152612cab81612c6f565b9050919050565b6000608082019050612cc76000830187612677565b612cd460208301866126ce565b612ce160408301856125b9565b612cee60608301846125b9565b95945050505050565b7f4552433230566f7465733a20696e76616c6964206e6f6e636500000000000000600082015250565b6000612d2d601983612403565b9150612d3882612cf7565b602082019050919050565b60006020820190508181036000830152612d5c81612d20565b9050919050565b7f45524332305065726d69743a206578706972656420646561646c696e65000000600082015250565b6000612d99601d83612403565b9150612da482612d63565b602082019050919050565b60006020820190508181036000830152612dc881612d8c565b9050919050565b600060c082019050612de46000830189612677565b612df160208301886126ce565b612dfe60408301876126ce565b612e0b60608301866125b9565b612e1860808301856125b9565b612e2560a08301846125b9565b979650505050505050565b7f45524332305065726d69743a20696e76616c6964207369676e61747572650000600082015250565b6000612e66601e83612403565b9150612e7182612e30565b602082019050919050565b60006020820190508181036000830152612e9581612e59565b9050919050565b7f45524332303a206d696e7420746f20746865207a65726f206164647265737300600082015250565b6000612ed2601f83612403565b9150612edd82612e9c565b602082019050919050565b60006020820190508181036000830152612f0181612ec5565b9050919050565b7f53616665436173743a2076616c756520646f65736e27742066697420696e203260008201527f3234206269747300000000000000000000000000000000000000000000000000602082015250565b6000612f64602783612403565b9150612f6f82612f08565b604082019050919050565b60006020820190508181036000830152612f9381612f57565b9050919050565b7f53616665436173743a2076616c756520646f65736e27742066697420696e203360008201527f3220626974730000000000000000000000000000000000000000000000000000602082015250565b6000612ff6602683612403565b915061300182612f9a565b604082019050919050565b6000602082019050818103600083015261302581612fe9565b9050919050565b7f45524332303a20617070726f76652066726f6d20746865207a65726f2061646460008201527f7265737300000000000000000000000000000000000000000000000000000000602082015250565b6000613088602483612403565b91506130938261302c565b604082019050919050565b600060208201905081810360008301526130b78161307b565b9050919050565b7f45524332303a20617070726f766520746f20746865207a65726f20616464726560008201527f7373000000000000000000000000000000000000000000000000000000000000602082015250565b600061311a602283612403565b9150613125826130be565b604082019050919050565b600060208201905081810360008301526131498161310d565b9050919050565b7f45524332303a20696e73756666696369656e7420616c6c6f77616e6365000000600082015250565b6000613186601d83612403565b915061319182613150565b602082019050919050565b600060208201905081810360008301526131b581613179565b9050919050565b7f45524332303a207472616e736665722066726f6d20746865207a65726f20616460008201527f6472657373000000000000000000000000000000000000000000000000000000602082015250565b6000613218602583612403565b9150613223826131bc565b604082019050919050565b600060208201905081810360008301526132478161320b565b9050919050565b7f45524332303a207472616e7366657220746f20746865207a65726f206164647260008201527f6573730000000000000000000000000000000000000000000000000000000000602082015250565b60006132aa602383612403565b91506132b58261324e565b604082019050919050565b600060208201905081810360008301526132d98161329d565b9050919050565b7f45524332303a207472616e7366657220616d6f756e742065786365656473206260008201527f616c616e63650000000000000000000000000000000000000000000000000000602082015250565b600061333c602683612403565b9150613347826132e0565b604082019050919050565b6000602082019050818103600083015261336b8161332f565b9050919050565b600060a0820190506133876000830188612677565b6133946020830187612677565b6133a16040830186612677565b6133ae60608301856125b9565b6133bb60808301846126ce565b9695505050505050565b7f4e487b7100000000000000000000000000000000000000000000000000000000600052601260045260246000fd5b60006133ff8261250d565b915061340a8361250d565b92508261341a576134196133c5565b5b828204905092915050565b600060408201905061343a60008301856125b9565b61344760208301846125b9565b9392505050565b600081905092915050565b7f1901000000000000000000000000000000000000000000000000000000000000600082015250565b600061348f60028361344e565b915061349a82613459565b600282019050919050565b6000819050919050565b6134c06134bb8261266d565b6134a5565b82525050565b60006134d182613482565b91506134dd82856134af565b6020820191506134ed82846134af565b6020820191508190509392505050565b60006080820190506135126000830187612677565b61351f6020830186612643565b61352c6040830185612677565b6135396060830184612677565b95945050505050565b7f4e487b7100000000000000000000000000000000000000000000000000000000600052602160045260246000fd5b7f45434453413a20696e76616c6964207369676e61747572650000000000000000600082015250565b60006135a7601883612403565b91506135b282613571565b602082019050919050565b600060208201905081810360008301526135d68161359a565b9050919050565b7f45434453413a20696e76616c6964207369676e6174757265206c656e67746800600082015250565b6000613613601f83612403565b915061361e826135dd565b602082019050919050565b6000602082019050818103600083015261364281613606565b9050919050565b7f45434453413a20696e76616c6964207369676e6174757265202773272076616c60008201527f7565000000000000000000000000000000000000000000000000000000000000602082015250565b60006136a5602283612403565b91506136b082613649565b604082019050919050565b600060208201905081810360008301526136d481613698565b905091905056fea2646970667358221220534bffe9191d32108c8aafa21ccc4baa263efbdfa09e04eb789a5778e796309164736f6c63430008110033",
  "linkReferences": {},
  "deployedLinkReferences": {}
}