{
  "_format": "hh-sol-artifact-1",
  "contractName": "VotingDao",
  "sourceName": "contracts/VotingDao.sol",
  "abi": [
    {
      "inputs": [
        {
          "internalType": "address",
          "name": "votes",
          "type": "address"
        }
      ],
      "stateMutability": "nonpayable",
      "type": "constructor"
    },
    {
      "anonymous": false,
      "inputs": [
        {
          "indexed": false,
          "internalType": "bytes32",
          "name": "_hash",
          "type": "bytes32"
        }
      ],
      "name": "ProposalAccepted",
      "type": "event"
    },
    {
      "anonymous": false,
      "inputs": [
        {
          "indexed": false,
          "internalType": "bytes32",
          "name": "_hash",
          "type": "bytes32"
        }
      ],
      "name": "ProposalCreated",
      "type": "event"
    },
    {
      "anonymous": false,
      "inputs": [
        {
          "indexed": false,
          "internalType": "bytes32",
          "name": "_hash",
          "type": "bytes32"
        }
      ],
      "name": "ProposalRejected",
      "type": "event"
    },
    {
      "inputs": [
        {
          "internalType": "bytes32",
          "name": "pHash",
          "type": "bytes32"
        }
      ],
      "name": "createProposal",
      "outputs": [],
      "stateMutability": "nonpayable",
      "type": "function"
    },
    {
      "inputs": [],
      "name": "getVotingToken",
      "outputs": [
        {
          "internalType": "contract ERC20",
          "name": "",
          "type": "address"
        }
      ],
      "stateMutability": "view",
      "type": "function"
    },
    {
      "inputs": [
        {
          "internalType": "bytes32",
          "name": "_hash",
          "type": "bytes32"
        },
        {
          "internalType": "uint256",
          "name": "amount",
          "type": "uint256"
        },
        {
          "internalType": "bool",
          "name": "agreed",
          "type": "bool"
        }
      ],
      "name": "vote",
      "outputs": [],
      "stateMutability": "nonpayable",
      "type": "function"
    }
  ],
  "bytecode": "0x60806040523480156200001157600080fd5b5060405162001410380380620014108339818101604052810190620000379190620000e9565b80600560006101000a81548173ffffffffffffffffffffffffffffffffffffffff021916908373ffffffffffffffffffffffffffffffffffffffff160217905550506200011b565b600080fd5b600073ffffffffffffffffffffffffffffffffffffffff82169050919050565b6000620000b18262000084565b9050919050565b620000c381620000a4565b8114620000cf57600080fd5b50565b600081519050620000e381620000b8565b92915050565b6000602082840312156200010257620001016200007f565b5b60006200011284828501620000d2565b91505092915050565b6112e5806200012b6000396000f3fe608060405234801561001057600080fd5b50600436106100415760003560e01c80632542bf06146100465780632c729fd114610062578063e28c3b191461007e575b600080fd5b610060600480360381019061005b9190610ba3565b61009c565b005b61007c60048036038101906100779190610c3e565b610443565b005b61008661091d565b6040516100939190610d10565b60405180910390f35b8060006003600083815260200190815260200160002060010154146100d66003600084815260200190815260200160002060010154610947565b90610117576040517f08c379a000000000000000000000000000000000000000000000000000000000815260040161010e9190610dbb565b60405180910390fd5b506000600160036101289190610e0c565b90506000806000805b600381101561027157600080826003811061014f5761014e610e40565b5b01549050600060036000838152602001908152602001600020905060038081111561017d5761017c610e6f565b5b8160000160009054906101000a900460ff1660038111156101a1576101a0610e6f565b5b14806101e25750600160038111156101bc576101bb610e6f565b5b8160000160009054906101000a900460ff1660038111156101e0576101df610e6f565b5b145b806102225750600260038111156101fc576101fb610e6f565b5b8160000160009054906101000a900460ff1660038111156102205761021f610e6f565b5b145b1561022b578296505b4281600101541161025c57858061024190610e9e565b965050838160010154101561025b57806001015493508294505b5b5050808061026990610e9e565b915050610131565b50600383036102d657600080836003811061028f5761028e610e40565b5b01549050600380600083815260200190815260200160002060000160006101000a81548160ff021916908360038111156102cc576102cb610e6f565b5b0217905550829450505b60038410610319576040517f08c379a000000000000000000000000000000000000000000000000000000000815260040161031090610f32565b60405180910390fd5b60405180608001604052806000600381111561033857610337610e6f565b5b81526020016203f4804261034c9190610e0c565b815260200160405180604001604052806000815260200160008152508152602001438152506003600088815260200190815260200160002060008201518160000160006101000a81548160ff021916908360038111156103af576103ae610e6f565b5b021790555060208201518160010155604082015181600201600082015181600001556020820151816001015550506060820151816004015590505085600085600381106103ff576103fe610e40565b5b01819055507f288a29bca04edb18fcdb2c76d6e3b03b8a137c85c70d1a4cb8aacfa868d60510866040516104339190610f61565b60405180910390a1505050505050565b6003600084815260200190815260200160002060038081111561046957610468610e6f565b5b8160000160009054906101000a900460ff16600381111561048d5761048c610e6f565b5b036104cd576040517f08c379a00000000000000000000000000000000000000000000000000000000081526004016104c490610fc8565b60405180910390fd5b8260008111610511576040517f08c379a00000000000000000000000000000000000000000000000000000000081526004016105089061105a565b60405180910390fd5b600060036000878152602001908152602001600020600101540361056a576040517f08c379a0000000000000000000000000000000000000000000000000000000008152600401610561906110c6565b60405180910390fd5b600060036000878152602001908152602001600020905084600560009054906101000a900473ffffffffffffffffffffffffffffffffffffffff1673ffffffffffffffffffffffffffffffffffffffff16639ab24eb0336040518263ffffffff1660e01b81526004016105dd9190611107565b602060405180830381865afa1580156105fa573d6000803e3d6000fd5b505050506040513d601f19601f8201168201806040525081019061061e9190611137565b101561065f576040517f08c379a0000000000000000000000000000000000000000000000000000000008152600401610656906111d6565b60405180910390fd5b806001015442106106985760038160000160006101000a81548160ff0219169083600381111561069257610691610e6f565b5b02179055505b60006004600088815260200190815260200160002060003373ffffffffffffffffffffffffffffffffffffffff1673ffffffffffffffffffffffffffffffffffffffff1681526020019081526020016000209050841561073057858160000160008282546107069190610e0c565b92505081905550858260020160000160008282546107249190610e0c565b9250508190555061076a565b858160010160008282546107449190610e0c565b92505081905550858260020160010160008282546107629190610e0c565b925050819055505b6000600560009054906101000a900473ffffffffffffffffffffffffffffffffffffffff1673ffffffffffffffffffffffffffffffffffffffff16638e539e8c84600401546040518263ffffffff1660e01b81526004016107cb9190611205565b602060405180830381865afa1580156107e8573d6000803e3d6000fd5b505050506040513d601f19601f8201168201806040525081019061080c9190611137565b905060028161081b919061124f565b836002016000015411156108925760018360000160006101000a81548160ff0219169083600381111561085157610850610e6f565b5b02179055507f942e1b58e86195262137610a19da111b7d2263eb4b95d67a856e77abc0ad6834886040516108859190610f61565b60405180910390a1610913565b60028161089f919061124f565b836002016001015411156109125760028360000160006101000a81548160ff021916908360038111156108d5576108d4610e6f565b5b02179055507f55295d4ce992922fa2e5ffbf3a3dcdb367de0a15e125ace083456017fd22060f886040516109099190610f61565b60405180910390a15b5b5050505050505050565b6000600560009054906101000a900473ffffffffffffffffffffffffffffffffffffffff16905090565b60606000600161095684610a15565b01905060008167ffffffffffffffff81111561097557610974611280565b5b6040519080825280601f01601f1916602001820160405280156109a75781602001600182028036833780820191505090505b509050600082602001820190505b600115610a0a578080600190039150507f3031323334353637383961626364656600000000000000000000000000000000600a86061a8153600a85816109fe576109fd611220565b5b049450600085036109b5575b819350505050919050565b600080600090507a184f03e93ff9f4daa797ed6e38ed64bf6a1f0100000000000000008310610a73577a184f03e93ff9f4daa797ed6e38ed64bf6a1f0100000000000000008381610a6957610a68611220565b5b0492506040810190505b6d04ee2d6d415b85acef81000000008310610ab0576d04ee2d6d415b85acef81000000008381610aa657610aa5611220565b5b0492506020810190505b662386f26fc100008310610adf57662386f26fc100008381610ad557610ad4611220565b5b0492506010810190505b6305f5e1008310610b08576305f5e1008381610afe57610afd611220565b5b0492506008810190505b6127108310610b2d576127108381610b2357610b22611220565b5b0492506004810190505b60648310610b505760648381610b4657610b45611220565b5b0492506002810190505b600a8310610b5f576001810190505b80915050919050565b600080fd5b6000819050919050565b610b8081610b6d565b8114610b8b57600080fd5b50565b600081359050610b9d81610b77565b92915050565b600060208284031215610bb957610bb8610b68565b5b6000610bc784828501610b8e565b91505092915050565b6000819050919050565b610be381610bd0565b8114610bee57600080fd5b50565b600081359050610c0081610bda565b92915050565b60008115159050919050565b610c1b81610c06565b8114610c2657600080fd5b50565b600081359050610c3881610c12565b92915050565b600080600060608486031215610c5757610c56610b68565b5b6000610c6586828701610b8e565b9350506020610c7686828701610bf1565b9250506040610c8786828701610c29565b9150509250925092565b600073ffffffffffffffffffffffffffffffffffffffff82169050919050565b6000819050919050565b6000610cd6610cd1610ccc84610c91565b610cb1565b610c91565b9050919050565b6000610ce882610cbb565b9050919050565b6000610cfa82610cdd565b9050919050565b610d0a81610cef565b82525050565b6000602082019050610d256000830184610d01565b92915050565b600081519050919050565b600082825260208201905092915050565b60005b83811015610d65578082015181840152602081019050610d4a565b60008484015250505050565b6000601f19601f8301169050919050565b6000610d8d82610d2b565b610d978185610d36565b9350610da7818560208601610d47565b610db081610d71565b840191505092915050565b60006020820190508181036000830152610dd58184610d82565b905092915050565b7f4e487b7100000000000000000000000000000000000000000000000000000000600052601160045260246000fd5b6000610e1782610bd0565b9150610e2283610bd0565b9250828201905080821115610e3a57610e39610ddd565b5b92915050565b7f4e487b7100000000000000000000000000000000000000000000000000000000600052603260045260246000fd5b7f4e487b7100000000000000000000000000000000000000000000000000000000600052602160045260246000fd5b6000610ea982610bd0565b91507fffffffffffffffffffffffffffffffffffffffffffffffffffffffffffffffff8203610edb57610eda610ddd565b5b600182019050919050565b7f50726f706f73616c732071756575652069732066756c6c000000000000000000600082015250565b6000610f1c601783610d36565b9150610f2782610ee6565b602082019050919050565b60006020820190508181036000830152610f4b81610f0f565b9050919050565b610f5b81610b6d565b82525050565b6000602082019050610f766000830184610f52565b92915050565b7f50726f706f73616c206578706972656400000000000000000000000000000000600082015250565b6000610fb2601083610d36565b9150610fbd82610f7c565b602082019050919050565b60006020820190508181036000830152610fe181610fa5565b9050919050565b7f566f746520616d6f756e742063616e2774206265207a65726f206f72206c657360008201527f7300000000000000000000000000000000000000000000000000000000000000602082015250565b6000611044602183610d36565b915061104f82610fe8565b604082019050919050565b6000602082019050818103600083015261107381611037565b9050919050565b7f50726f706f73616c206973206e6f742070726573656e74656400000000000000600082015250565b60006110b0601983610d36565b91506110bb8261107a565b602082019050919050565b600060208201905081810360008301526110df816110a3565b9050919050565b60006110f182610c91565b9050919050565b611101816110e6565b82525050565b600060208201905061111c60008301846110f8565b92915050565b60008151905061113181610bda565b92915050565b60006020828403121561114d5761114c610b68565b5b600061115b84828501611122565b91505092915050565b7f4e6f7420656e6f7567682062616c616e6365206f6e2073656e6465722061636360008201527f6f756e7400000000000000000000000000000000000000000000000000000000602082015250565b60006111c0602483610d36565b91506111cb82611164565b604082019050919050565b600060208201905081810360008301526111ef816111b3565b9050919050565b6111ff81610bd0565b82525050565b600060208201905061121a60008301846111f6565b92915050565b7f4e487b7100000000000000000000000000000000000000000000000000000000600052601260045260246000fd5b600061125a82610bd0565b915061126583610bd0565b92508261127557611274611220565b5b828204905092915050565b7f4e487b7100000000000000000000000000000000000000000000000000000000600052604160045260246000fdfea2646970667358221220fd1b97094e2ff7865361f64ea79cdfdf09d44d45845aca8ed54f1f2e2fe5d31d64736f6c63430008110033",
  "linkReferences": {},
  "deployedLinkReferences": {}
}